:100000000C9472000C9493000C9493000C94930045
:100010000C9493000C94BC0F0C94E70F0C94930079
:100020000C9493000C9493000C9493000C94930004
:100030000C9493000C9493000C9493000C949300F4
:100040000C9493000C9493000C9493000C949300E4
:100050000C9493000C9493000C9493000C949300D4
:100060000C9493000C94E1150C9493000C94930061
:100070000C9493000C9493000C9493000C949300B4
:100080000C9493000C9493000C9493000C949300A4
:100090000C9493000C9493000C9493000C94930094
:1000A0000C9493000C9493000C9493000C94930084
:1000B0000C9493000C9493000C9493000C94930074
:1000C0000C9493000C9493000C9493000C94930064
:1000D0000C9493000C9493000C9493000C94930054
:1000E0000C94930011241FBECFEFD1E2DEBFCDBF31
:1000F00000E00CBF13E0A0E0B2E0EEE4FBE400E0BF
:100100000BBF02C007900D92AE36B107D9F714E0CD
:10011000AEE6B3E001C01D92A436B107E1F70E943C
:10012000CD160C94A5250C940000DF93CF93CDB78A
:10013000DEB7A7E2B0E0E7E2F0E08081876F8C9362
:10014000A8E2B0E0E8E2F0E0808180788C93CF9183
:10015000DF9108950F931F93DF93CF93CDB7DEB751
:10016000C057D0400FB6F894DEBF0FBECDBFFE0122
:10017000E359FF4F80E090E0A0E8BFE380839183E4
:10018000A283B3838E0107591F4FFE01E359FF4F2E
:10019000608171818281938126E636E646E655E4E8
:1001A0000E946220DC01CB01F80180839183A2834D
:1001B000B383FE01E759FF4F608171818281938192
:1001C00020E030E040E85FE30E946822882344F4A6
:1001D000FE01E959FF4F81E090E09183808364C084
:1001E000FE01E759FF4F608171818281938120E098
:1001F0003FEF4FE757E40E94082218160CF043C067
:10020000FE01E359FF4F608171818281938120E07B
:1002100030E040E251E40E946220DC01CB018E011B
:1002200009591F4FBC01CD010E948C1EDC01CB017E
:10023000F801918380831FC0FE01EB59FF4F80E7D7
:1002400091E091838083FE01EB59FF4F8081918182
:100250000197F1F7FE01EB59FF4F91838083DE0197
:10026000A959BF4FFE01E959FF4F80819181019744
:1002700011969C938E93FE01E959FF4F80819181E5
:100280000097D1F627C08E0109591F4FFE01E7598B
:10029000FF4F60817181828193810E948C1EDC01FD
:1002A000CB01F80191838083DE01AD59BF4FFE0180
:1002B000E959FF4F808191818D939C93FE01ED5907
:1002C000FF4F808191810197F1F7FE01ED59FF4FBA
:1002D00091838083A8E2B0E0E8E2F0E080818E7F45
:1002E0008C93A8E2B0E0E8E2F0E080818D7F8C930F
:1002F000E8E2F0E080E38083A8E2B0E0E8E2F0E04A
:10030000808184608C93FE01E15AFF4F80E090E091
:10031000A0EAB0E480839183A283B3838E01055A5F
:100320001F4FFE01E15AFF4F6081718182819381ED
:1003300026E636E646E655E40E946220DC01CB0163
:10034000F80180839183A283B383FE01E55AFF4FB6
:10035000608171818281938120E030E040E85FE339
:100360000E946822882344F4FE01E75AFF4F81E08F
:1003700090E09183808364C0FE01E55AFF4F608165
:1003800071818281938120E03FEF4FE757E40E9423
:10039000082218160CF043C0FE01E15AFF4F60819D
:1003A00071818281938120E030E040E251E40E943B
:1003B0006220DC01CB018E01075A1F4FBC01CD0129
:1003C0000E948C1EDC01CB01F801918380831FC049
:1003D000FE01E95AFF4F80E791E091838083FE019F
:1003E000E95AFF4F808191810197F1F7FE01E95AA7
:1003F000FF4F91838083DE01A75ABF4FFE01E75A6A
:10040000FF4F80819181019711969C938E93FE01FD
:10041000E75AFF4F808191810097D1F627C08E0166
:10042000075A1F4FFE01E55AFF4F6081718182819B
:1004300093810E948C1EDC01CB01F80191838083A3
:10044000DE01AB5ABF4FFE01E75AFF4F8081918119
:100450008D939C93FE01EB5AFF4F80819181019710
:10046000F1F7FE01EB5AFF4F91838083A8E2B0E0E1
:10047000E8E2F0E080818B7F8C93FE01EF5AFF4F22
:1004800080E090E0A0E8BFE380839183A283B38300
:100490008E01035B1F4FFE01EF5AFF4F6081718198
:1004A0008281938126E636E646E655E40E94622084
:1004B000DC01CB01F80180839183A283B383FE0129
:1004C000E35BFF4F608171818281938120E030E0A6
:1004D00040E85FE30E946822882344F4FE01E55B64
:1004E000FF4F81E090E09183808364C0FE01E35B75
:1004F000FF4F608171818281938120E03FEF4FE760
:1005000057E40E94082218160CF043C0FE01EF5A6F
:10051000FF4F608171818281938120E030E040E271
:1005200051E40E946220DC01CB018E01055B1F4F6C
:10053000BC01CD010E948C1EDC01CB01F80191832E
:1005400080831FC0FE01E75BFF4F80E791E091834E
:100550008083FE01E75BFF4F808191810197F1F776
:10056000FE01E75BFF4F91838083DE01A55BBF4FF8
:10057000FE01E55BFF4F80819181019711969C936D
:100580008E93FE01E55BFF4F808191810097D1F64C
:1005900027C08E01055B1F4FFE01E35BFF4F6081AB
:1005A0007181828193810E948C1EDC01CB01F80154
:1005B00091838083DE01A95BBF4FFE01E55BFF4FA6
:1005C000808191818D939C93FE01E95BFF4F808137
:1005D00091810197F1F7FE01E95BFF4F91838083E1
:1005E000A8E2B0E0E8E2F0E080818E7F8C93A8E2A0
:1005F000B0E0E8E2F0E080818D7F8C93E8E2F0E00B
:1006000080E38083A8E2B0E0E8E2F0E080818460EB
:100610008C93FE01ED5BFF4F80E090E0A0EAB0E438
:1006200080839183A283B3838E01015C1F4FFE01FF
:10063000ED5BFF4F608171818281938126E636E612
:1006400046E655E40E946220DC01CB01F80180837C
:100650009183A283B383FE01FF96608171818281C1
:10066000938120E030E040E85FE30E946822882325
:100670002CF481E090E09EAF8DAF46C0FE01FF9666
:10068000608171818281938120E03FEF4FE757E4E1
:100690000E940822181664F5FE01ED5BFF4F608191
:1006A00071818281938120E030E040E251E40E9438
:1006B0006220DC01CB01BC01CD010E948C1EDC015B
:1006C000CB019EAF8DAF0FC080E791E09CAF8BAFA9
:1006D0008BAD9CAD0197F1F79CAF8BAF8DAD9EAD0F
:1006E00001979EAF8DAF8DAD9EAD009769F716C097
:1006F000FE01FF9660817181828193810E948C1E30
:10070000DC01CB019EAF8DAF8DAD9EAD9AAF89AFB1
:1007100089AD9AAD0197F1F79AAF89AFA8E2B0E041
:10072000E8E2F0E080818B7F8C9380E090E0A0E8AD
:10073000BFE38DAB9EABAFABB8AF6DA97EA98FA960
:1007400098AD26E636E646E655E40E946220DC01D6
:10075000CB0189AB9AABABABBCAB69A97AA98BA92E
:100760009CA920E030E040E85FE30E9468228823F3
:100770002CF481E090E098AB8FA73FC069A97AA9DB
:100780008BA99CA920E03FEF4FE757E40E94082285
:1007900018164CF56DA97EA98FA998AD20E030E020
:1007A00040E251E40E946220DC01CB01BC01CD019A
:1007B0000E948C1EDC01CB0198AB8FA70FC080E795
:1007C00091E09EA78DA78DA59EA50197F1F79EA705
:1007D0008DA78FA598A9019798AB8FA78FA598A9EA
:1007E000009769F714C069A97AA98BA99CA90E94EE
:1007F0008C1EDC01CB0198AB8FA78FA598A99CA775
:100800008BA78BA59CA50197F1F79CA78BA7A8E2C6
:10081000B0E0E8E2F0E080818E7F8C93A8E2B0E067
:10082000E8E2F0E080818D7F8C93E8E2F0E080E305
:100830008083A8E2B0E0E8E2F0E0808184608C93FD
:1008400080E090E0A0EAB0E48FA398A7A9A7BAA798
:100850006FA178A589A59AA526E636E646E655E471
:100860000E946220DC01CB018BA39CA3ADA3BEA39D
:100870006BA17CA18DA19EA120E030E040E85FE368
:100880000E94682288232CF481E090E09AA389A337
:100890003FC06BA17CA18DA19EA120E03FEF4FE75F
:1008A00057E40E94082218164CF56FA178A589A577
:1008B0009AA520E030E040E251E40E946220DC0191
:1008C000CB01BC01CD010E948C1EDC01CB019AA39F
:1008D00089A30FC080E791E098A38F8F8F8D98A197
:1008E0000197F1F798A38F8F89A19AA101979AA3F5
:1008F00089A389A19AA1009769F714C06BA17CA173
:100900008DA19EA10E948C1EDC01CB019AA389A31C
:1009100089A19AA19E8F8D8F8D8D9E8D0197F1F764
:100920009E8F8D8FA8E2B0E0E8E2F0E080818B7FBF
:100930008C9380E090E0A0E8BFE3898F9A8FAB8F23
:10094000BC8F698D7A8D8B8D9C8D26E636E646E6CA
:1009500055E40E946220DC01CB018D8B9E8BAF8B16
:10096000B88F6D897E898F89988D20E030E040E8CE
:100970005FE30E94682288232CF481E090E09C8B46
:100980008B8B3FC06D897E898F89988D20E03FEFEA
:100990004FE757E40E94082218164CF5698D7A8DAE
:1009A0008B8D9C8D20E030E040E251E40E9462207B
:1009B000DC01CB01BC01CD010E948C1EDC01CB010E
:1009C0009C8B8B8B0FC080E791E09A8B898B8989F8
:1009D0009A890197F1F79A8B898B8B899C8901976A
:1009E0009C8B8B8B8B899C89009769F714C06D89D0
:1009F0007E898F89988D0E948C1EDC01CB019C8B97
:100A00008B8B8B899C89988B8F878F859889019791
:100A1000F1F7988B8F87A8E2B0E0E8E2F0E0808100
:100A20008E7F8C93A8E2B0E0E8E2F0E080818D7FD9
:100A30008C93E8E2F0E080E28083A8E2B0E0E8E2B4
:100A4000F0E0808184608C9380E090E0A0EAB0E4E4
:100A50008B879C87AD87BE876B857C858D859E85C2
:100A600026E636E646E655E40E946220DC01CB012C
:100A70008F839887A987BA876F81788589859A85BA
:100A800020E030E040E85FE30E94682288232CF4F5
:100A900081E090E09E838D833FC06F81788589855A
:100AA0009A8520E03FEF4FE757E40E94082218168E
:100AB0004CF56B857C858D859E8520E030E040E29D
:100AC00051E40E946220DC01CB01BC01CD010E94F7
:100AD0008C1EDC01CB019E838D830FC080E791E0EB
:100AE0009C838B838B819C810197F1F79C838B8303
:100AF0008D819E8101979E838D838D819E8100973C
:100B000069F714C06F81788589859A850E948C1E4B
:100B1000DC01CB019E838D838D819E819A838983A5
:100B200089819A810197F1F79A838983A8E2B0E0DD
:100B3000E8E2F0E080818B7F8C93C059DF4F0FB6E5
:100B4000F894DEBF0FBECDBFCF91DF911F910F9103
:100B50000895DF93CF93CDB7DEB72E970FB6F894F5
:100B6000DEBF0FBECDBF0E94AA0080E090E0A0E8EB
:100B7000BFE38B879C87AD87BE876B857C858D8522
:100B80009E8526E636E646E655E40E946220DC01B4
:100B9000CB018F839887A987BA876F8178858985EC
:100BA0009A8520E030E040E85FE30E9468228823D5
:100BB0002CF481E090E09E838D833FC06F81788527
:100BC00089859A8520E03FEF4FE757E40E9408228D
:100BD00018164CF56B857C858D859E8520E030E070
:100BE00040E251E40E946220DC01CB01BC01CD0156
:100BF0000E948C1EDC01CB019E838D830FC080E799
:100C000091E09C838B838B819C810197F1F79C837E
:100C10008B838D819E8101979E838D838D819E81A3
:100C2000009769F714C06F81788589859A850E943D
:100C30008C1EDC01CB019E838D838D819E819A83E6
:100C4000898389819A810197F1F79A83898388E260
:100C50000E943F0681E00E943F0686E00E943F0618
:100C60008EE00E943F0680E80E943F062E960FB657
:100C7000F894DEBF0FBECDBFCF91DF910895DF9313
:100C8000CF93CDB7DEB76E970FB6F894DEBF0FBE29
:100C9000CDBF8E8F8E8D8D8F8D8D807F8D8FA8E2B5
:100CA000B0E0E8E2F0E080818F708C93A8E2B0E0E1
:100CB000E8E2F0E090818D8D892B8C93A8E2B0E082
:100CC000E8E2F0E080818E7F8C93A8E2B0E0E8E279
:100CD000F0E080818D7F8C93A8E2B0E0E8E2F0E064
:100CE000808184608C9380E090E0A0EAB0E4898FFA
:100CF0009A8FAB8FBC8F698D7A8D8B8D9C8D26E6FC
:100D000036E646E655E40E946220DC01CB018D8B7D
:100D10009E8BAF8BB88F6D897E898F89988D20E0EF
:100D200030E040E85FE30E94682288232CF481E0F1
:100D300090E09C8B8B8B3FC06D897E898F89988DCD
:100D400020E03FEF4FE757E40E94082218164CF5C9
:100D5000698D7A8D8B8D9C8D20E030E040E251E4EE
:100D60000E946220DC01CB01BC01CD010E948C1EDF
:100D7000DC01CB019C8B8B8B0FC080E791E09A8BC1
:100D8000898B89899A890197F1F79A8B898B8B894D
:100D90009C8901979C8B8B8B8B899C89009769F729
:100DA00014C06D897E898F89988D0E948C1EDC010C
:100DB000CB019C8B8B8B8B899C89988B8F878F85A4
:100DC00098890197F1F7988B8F87A8E2B0E0E8E265
:100DD000F0E080818B7F8C938E8D8F708E8F8E8DC7
:100DE0008295807F8E8FA8E2B0E0E8E2F0E080811B
:100DF0008F708C93A8E2B0E0E8E2F0E090818E8DF5
:100E0000892B8C93A8E2B0E0E8E2F0E080818E7F4D
:100E10008C93A8E2B0E0E8E2F0E080818D7F8C93D3
:100E2000A8E2B0E0E8E2F0E0808184608C9380E0AA
:100E300090E0A0EAB0E48B879C87AD87BE876B8586
:100E40007C858D859E8526E636E646E655E40E943D
:100E50006220DC01CB018F839887A987BA876F81D5
:100E6000788589859A8520E030E040E85FE30E943C
:100E7000682288232CF481E090E09E838D833FC01C
:100E80006F81788589859A8520E03FEF4FE757E4A9
:100E90000E94082218164CF56B857C858D859E85F1
:100EA00020E030E040E251E40E946220DC01CB010E
:100EB000BC01CD010E948C1EDC01CB019E838D8381
:100EC0000FC080E791E09C838B838B819C8101978D
:100ED000F1F79C838B838D819E8101979E838D8307
:100EE0008D819E81009769F714C06F81788589850F
:100EF0009A850E948C1EDC01CB019E838D838D819F
:100F00009E819A83898389819A810197F1F79A83D7
:100F10008983A8E2B0E0E8E2F0E080818B7F8C93E7
:100F20006E960FB6F894DEBF0FBECDBFCF91DF91A6
:100F30000895DF93CF93CDB7DEB76E970FB6F894D1
:100F4000DEBF0FBECDBF8E8F8E8D8D8F8D8D807F3E
:100F50008D8FA8E2B0E0E8E2F0E080818F708C93A2
:100F6000A8E2B0E0E8E2F0E090818D8D892B8C93CF
:100F7000A8E2B0E0E8E2F0E0808181608C93A8E232
:100F8000B0E0E8E2F0E080818D7F8C93A8E2B0E0F1
:100F9000E8E2F0E0808184608C9380E090E0A0EA59
:100FA000B0E4898F9A8FAB8FBC8F698D7A8D8B8DD2
:100FB0009C8D26E636E646E655E40E946220DC017A
:100FC000CB018D8B9E8BAF8BB88F6D897E898F897E
:100FD000988D20E030E040E85FE30E94682288239B
:100FE0002CF481E090E09C8B8B8B3FC06D897E89D7
:100FF0008F89988D20E03FEF4FE757E40E94082249
:1010000018164CF5698D7A8D8B8D9C8D20E030E023
:1010100040E251E40E946220DC01CB01BC01CD0121
:101020000E948C1EDC01CB019C8B8B8B0FC080E758
:1010300091E09A8B898B89899A890197F1F79A8B2C
:10104000898B8B899C8901979C8B8B8B8B899C8945
:10105000009769F714C06D897E898F89988D0E94E9
:101060008C1EDC01CB019C8B8B8B8B899C89988B94
:101070008F878F8598890197F1F7988B8F87A8E2E2
:10108000B0E0E8E2F0E080818B7F8C938E8D8F70F2
:101090008E8F8E8D8295807F8E8FA8E2B0E0E8E201
:1010A000F0E080818F708C93A8E2B0E0E8E2F0E09D
:1010B00090818E8D892B8C93A8E2B0E0E8E2F0E07D
:1010C000808181608C93A8E2B0E0E8E2F0E080816A
:1010D0008D7F8C93A8E2B0E0E8E2F0E0808184604C
:1010E0008C9380E090E0A0EAB0E48B879C87AD878A
:1010F000BE876B857C858D859E8526E636E646E631
:1011000055E40E946220DC01CB018F839887A98778
:10111000BA876F81788589859A8520E030E040E83C
:101120005FE30E94682288232CF481E090E09E8394
:101130008D833FC06F81788589859A8520E03FEF58
:101140004FE757E40E94082218164CF56B857C8502
:101150008D859E8520E030E040E251E40E946220CF
:10116000DC01CB01BC01CD010E948C1EDC01CB0156
:101170009E838D830FC080E791E09C838B838B815E
:101180009C810197F1F79C838B838D819E810197D0
:101190009E838D838D819E81009769F714C06F8136
:1011A000788589859A850E948C1EDC01CB019E83FF
:1011B0008D838D819E819A83898389819A8101970C
:1011C000F1F79A838983A8E2B0E0E8E2F0E0808159
:1011D0008B7F8C936E960FB6F894DEBF0FBECDBF9B
:1011E000CF91DF910895DF93CF93CDB7DEB780E83D
:1011F0000E943F06CF91DF910895DF93CF930F9226
:101200000F92CDB7DEB79A8389830AC0E981FA814C
:1012100080810E94990789819A8101969A838983A6
:10122000E981FA818081882389F70F900F90CF910F
:10123000DF910895DF93CF9300D00F92CDB7DEB743
:1012400089836A838981282F30E03C832B838B81BB
:101250009C8182309105D9F02B813C81233031056E
:1012600034F48B819C818130910561F01EC02B810B
:101270003C812330310581F08B819C818430910544
:1012800081F013C08A8181580E943F060EC08A8176
:1012900081540E943F0609C08A818D560E943F06F4
:1012A00004C08A818D520E943F060F900F900F90CC
:1012B0000F90CF91DF910895DF93CF93CDB7DEB735
:1012C00027970FB6F894DEBF0FBECDBF8A836B831E
:1012D0005D834C833F832E8319828A81882319F092
:1012E0008B81882319F40E94F30804C08A816B81E2
:1012F0000E941A098E819F818530910519F089819C
:101300008130A9F48C819D8120E137E2B9010E94EE
:101310005A25CB01C09690934D0480934C04809144
:101320004C0490914D040E94990781E089838E813D
:101330009F818430910519F08981813011F58C816C
:101340009D8128EE33E0B9010E945A25CB0190938C
:1013500051048093500480915004909151042AE0EC
:1013600030E0B9010E945A25C096909361048093A1
:10137000600480916004909161040E94990781E06B
:1013800089838E819F818330910519F08981813015
:1013900011F58C819D8124E630E0B9010E945A2527
:1013A000CB0190935104809350048091500490910C
:1013B00051042AE030E0B9010E945A25C09690936A
:1013C0005D0480935C0480915C0490915D040E94B4
:1013D000990781E089838E819F818230910519F080
:1013E0008981813011F58C819D812AE030E0B9013D
:1013F0000E945A25CB019093510480935004809110
:101400005004909151042AE030E0B9010E945A251D
:10141000C096909354048093530480915304909108
:1014200054040E94990781E089838E819F818130D5
:10143000910519F08981813091F48C819D812AE098
:1014400030E0B9010E945A25C09690935F048093C2
:101450005E0480915E0490915F040E9499078E81E2
:101460009F81863091051CF085E40E94990727969C
:101470000FB6F894DEBF0FBECDBFCF91DF910895B8
:10148000DF93CF93CDB7DEB7E0E3F0E01082E7E083
:10149000F1E01082CF91DF910895DF93CF93CDB724
:1014A000DEB7EAE7F0E086E88083EBE7F0E0108261
:1014B000ECE7F0E080E28083E0E5F0E080E8808324
:1014C000CF91DF910895DF93CF930F920F92CDB715
:1014D000DEB789836A83E8E2F1E089818083EAE20A
:1014E000F1E08A8180830F900F90CF91DF91089572
:1014F000DF93CF930F920F92CDB7DEB78A838A81A5
:10150000883038F0ABE7B0E0EBE7F0E0808188604E
:101510008C93ACE7B0E0ECE7F0E08081982F8A8113
:101520008770892B8C93AAE7B0E0EAE7F0E080812E
:1015300080648C93EAE7F0E08081882F90E08071EE
:1015400090700097B9F3E9E7F0E0808189830E9409
:101550004D0A89810F900F90CF91DF910895DF930D
:10156000CF93CDB7DEB7A4E2B0E0E4E2F0E0808153
:1015700080628C93A5E2B0E0E5E2F0E080818062D9
:101580008C93CF91DF910895DF93CF93CDB7DEB7E2
:10159000A4E2B0E0E4E2F0E0808180648C93A5E214
:1015A000B0E0E5E2F0E0808180648C93CF91DF9140
:1015B0000895DF93CF93CDB7DEB7E1E8F0E0108276
:1015C000E5E8F0E08CEF8083E4E8F0E081E0808300
:1015D000E9E8F0E083E08083E8E8F0E08FEF8083E3
:1015E000EBE8F0E083E08083EAE8F0E08FEF8083CF
:1015F000EDE8F0E083E08083ECE8F0E08FEF8083BB
:10160000E7E8F0E083E08083E6E8F0E08FEF8083B6
:10161000E0E8F0E08BEA8083E2E8F0E01082E1E8C5
:10162000F0E08CE08083CF91DF910895DF93CF933A
:10163000CDB7DEB70E94AF0A0E94C40A0E94D90A41
:10164000CF91DF9108950F931F93DF93CF9300D035
:101650000F920F92CDB7DEB78D8380E090E0A0E0CF
:10166000B0E089839A83AB83BC838D81882F90E01F
:10167000A0E0B0E0BC01CD010E94EC22DC01CB0176
:10168000BC01CD012BE734E14EEE5FE30E945C210B
:10169000DC01CB01BC01CD0120E030E04CE052E4A4
:1016A0000E943520DC01CB0189839A83AB83BC8304
:1016B000E9E8F0E0108208E810E069817A818B8126
:1016C0009C810E948C1EDC01CB01F80180830F906D
:1016D0000F900F900F900F90CF91DF911F910F916E
:1016E00008950F931F93DF93CF9300D00F920F9223
:1016F000CDB7DEB78D8380E090E0A0E0B0E08983D5
:101700009A83AB83BC838D81882F90E0A0E0B0E00A
:10171000BC01CD010E94EC22DC01CB01BC01CD015A
:101720002BE734E14EEE5FE30E945C21DC01CB014C
:10173000BC01CD0120E030E04CE052E40E943520B5
:10174000DC01CB0189839A83AB83BC83EBE8F0E0B7
:1017500010820AE810E069817A818B819C810E9465
:101760008C1EDC01CB01F80180830F900F900F904D
:101770000F900F90CF91DF911F910F910895DF93FC
:10178000CF93CDB7DEB7E8970FB6F894DEBF0FBEA4
:10179000CDBF88E20E94710B80E090E0A6E1B4E446
:1017A0008DAB9EABAFABB8AF6DA97EA98FA998AD3D
:1017B00026E636E646E655E40E946220DC01CB01CF
:1017C00089AB9AABABABBCAB69A97AA98BA99CA935
:1017D00020E030E040E85FE30E94682288232CF498
:1017E00081E090E098AB8FA73FC069A97AA98BA947
:1017F0009CA920E03FEF4FE757E40E94082218160B
:101800004CF56DA97EA98FA998AD20E030E040E2AB
:1018100051E40E946220DC01CB01BC01CD010E9499
:101820008C1EDC01CB0198AB8FA70FC080E791E045
:101830009EA78DA78DA59EA50197F1F79EA78DA7C1
:101840008FA598A9019798AB8FA78FA598A9009706
:1018500069F714C069A97AA98BA99CA90E948C1E5A
:10186000DC01CB0198AB8FA78FA598A99CA78BA76C
:101870008BA59CA50197F1F79CA78BA782E80E94F6
:10188000230B80E090E0A6E1B4E48FA398A7A9A77A
:10189000BAA76FA178A589A59AA526E636E646E6F9
:1018A00055E40E946220DC01CB018BA39CA3ADA375
:1018B000BEA36BA17CA18DA19EA120E030E040E8F9
:1018C0005FE30E94682288232CF481E090E09AA3D1
:1018D00089A33FC06BA17CA18DA19EA120E03FEF19
:1018E0004FE757E40E94082218164CF56FA178A51F
:1018F00089A59AA520E030E040E251E40E946220F0
:10190000DC01CB01BC01CD010E948C1EDC01CB01AE
:101910009AA389A30FC080E791E098A38F8F8F8D42
:1019200098A10197F1F798A38F8F89A19AA10197A8
:101930009AA389A389A19AA1009769F714C06BA102
:101940007CA18DA19EA10E948C1EDC01CB019AA3DB
:1019500089A389A19AA19E8F8D8F8D8D9E8D0197D0
:10196000F1F79E8F8D8F80E00E94710B80E090E0F8
:10197000A6E1B4E4898F9A8FAB8FBC8F698D7A8D85
:101980008B8D9C8D26E636E646E655E40E94622065
:10199000DC01CB018D8B9E8BAF8BB88F6D897E89DF
:1019A0008F89988D20E030E040E85FE30E94682254
:1019B00088232CF481E090E09C8B8B8B3FC06D8959
:1019C0007E898F89988D20E03FEF4FE757E40E9492
:1019D000082218164CF5698D7A8D8B8D9C8D20E030
:1019E00030E040E251E40E946220DC01CB01BC0106
:1019F000CD010E948C1EDC01CB019C8B8B8B0FC018
:101A000080E791E09A8B898B89899A890197F1F710
:101A10009A8B898B8B899C8901979C8B8B8B8B896B
:101A20009C89009769F714C06D897E898F89988D8C
:101A30000E948C1EDC01CB019C8B8B8B8B899C893B
:101A4000988B8F878F8598890197F1F7988B8F876F
:101A50008AE50E94230B80E090E0A6E9B3E48B873F
:101A60009C87AD87BE876B857C858D859E8526E6A8
:101A700036E646E655E40E946220DC01CB018F8306
:101A80009887A987BA876F81788589859A8520E0AC
:101A900030E040E85FE30E94682288232CF481E074
:101AA00090E09E838D833FC06F81788589859A857C
:101AB00020E03FEF4FE757E40E94082218164CF54C
:101AC0006B857C858D859E8520E030E040E251E489
:101AD0000E946220DC01CB01BC01CD010E948C1E62
:101AE000DC01CB019E838D830FC080E791E09C8356
:101AF0008B838B819C810197F1F79C838B838D81F4
:101B00009E8101979E838D838D819E81009769F7C9
:101B100014C06F81788589859A850E948C1EDC01AE
:101B2000CB019E838D838D819E819A838983898158
:101B30009A810197F1F79A838983E8960FB6F89412
:101B4000DEBF0FBECDBFCF91DF910895DF93CF935E
:101B5000CDB7DEB7E8970FB6F894DEBF0FBECDBFA6
:101B600082E80E94230B80E090E0AAEFB3E48DAB03
:101B70009EABAFABB8AF6DA97EA98FA998AD26E695
:101B800036E646E655E40E946220DC01CB0189ABD3
:101B90009AABABABBCAB69A97AA98BA99CA920E095
:101BA00030E040E85FE30E94682288232CF481E063
:101BB00090E098AB8FA73FC069A97AA98BA99CA98F
:101BC00020E03FEF4FE757E40E94082218164CF53B
:101BD0006DA97EA98FA998AD20E030E040E251E4E4
:101BE0000E946220DC01CB01BC01CD010E948C1E51
:101BF000DC01CB0198AB8FA70FC080E791E09EA7D7
:101C00008DA78DA59EA50197F1F79EA78DA78FA5FE
:101C100098A9019798AB8FA78FA598A9009769F706
:101C200014C069A97AA98BA99CA90E948C1EDC0109
:101C3000CB0198AB8FA78FA598A99CA78BA78BA545
:101C40009CA50197F1F79CA78BA788E20E94710BD6
:101C500080E090E0A6E1B4E48FA398A7A9A7BAA773
:101C60006FA178A589A59AA526E636E646E655E44D
:101C70000E946220DC01CB018BA39CA3ADA3BEA379
:101C80006BA17CA18DA19EA120E030E040E85FE344
:101C90000E94682288232CF481E090E09AA389A313
:101CA0003FC06BA17CA18DA19EA120E03FEF4FE73B
:101CB00057E40E94082218164CF56FA178A589A553
:101CC0009AA520E030E040E251E40E946220DC016D
:101CD000CB01BC01CD010E948C1EDC01CB019AA37B
:101CE00089A30FC080E791E098A38F8F8F8D98A173
:101CF0000197F1F798A38F8F89A19AA101979AA3D1
:101D000089A389A19AA1009769F714C06BA17CA14E
:101D10008DA19EA10E948C1EDC01CB019AA389A3F8
:101D200089A19AA19E8F8D8F8D8D9E8D0197F1F740
:101D30009E8F8D8F80E00E94710B80E090E0A6E185
:101D4000B4E4898F9A8FAB8FBC8F698D7A8D8B8D20
:101D50009C8D26E636E646E655E40E946220DC01CC
:101D6000CB018D8B9E8BAF8BB88F6D897E898F89D0
:101D7000988D20E030E040E85FE30E9468228823ED
:101D80002CF481E090E09C8B8B8B3FC06D897E8929
:101D90008F89988D20E03FEF4FE757E40E9408229B
:101DA00018164CF5698D7A8D8B8D9C8D20E030E076
:101DB00040E251E40E946220DC01CB01BC01CD0174
:101DC0000E948C1EDC01CB019C8B8B8B0FC080E7AB
:101DD00091E09A8B898B89899A890197F1F79A8B7F
:101DE000898B8B899C8901979C8B8B8B8B899C8998
:101DF000009769F714C06D897E898F89988D0E943C
:101E00008C1EDC01CB019C8B8B8B8B899C89988BE6
:101E10008F878F8598890197F1F7988B8F878CE34F
:101E20000E94230B80E090E0AAE7B4E48B879C87B4
:101E3000AD87BE876B857C858D859E8526E636E6DB
:101E400046E655E40E946220DC01CB018F8398872F
:101E5000A987BA876F81788589859A8520E030E0E7
:101E600040E85FE30E94682288232CF481E090E040
:101E70009E838D833FC06F81788589859A8520E018
:101E80003FEF4FE757E40E94082218164CF56B8588
:101E90007C858D859E8520E030E040E251E40E9403
:101EA0006220DC01CB01BC01CD010E948C1EDC0153
:101EB000CB019E838D830FC080E791E09C838B8351
:101EC0008B819C810197F1F79C838B838D819E810F
:101ED00001979E838D838D819E81009769F714C041
:101EE0006F81788589859A850E948C1EDC01CB01E3
:101EF0009E838D838D819E819A83898389819A8136
:101F00000197F1F79A838983E8960FB6F894DEBFBC
:101F10000FBECDBFCF91DF910895DF93CF93CDB7A3
:101F2000DEB7ADE2B0E0EDE2F0E080818F7C8C9333
:101F3000AEE2B0E0EEE2F0E0808180638C93CF917E
:101F4000DF910895DF93CF93CDB7DEB7F894ADE37B
:101F5000B0E0EDE3F0E0808180638C93E9E6F0E0AF
:101F60001082AAE6B0E0EAE6F0E080818A608C9315
:101F70007894CF91DF9108951F920F920FB60F9230
:101F800011248F939F93AF93BF93DF93CF93CDB7DC
:101F9000DEB780913A0490913B04A0913C04B0914B
:101FA0003D040196A11DB11D80933A0490933B041A
:101FB000A0933C04B0933D04CF91DF91BF91AF91CA
:101FC0009F918F910F900FBE0F901F9018951F92A9
:101FD0000F920FB60F9211248F939F93AF93BF93DD
:101FE000DF93CF93CDB7DEB780913E0490913F044D
:101FF000A0914004B09141040196A11DB11D8093B0
:102000003E0490933F04A0934004B0934104CF91C9
:10201000DF91BF91AF919F918F910F900FBE0F9065
:102020001F901895DF93CF93CDB7DEB72B970FB6E0
:10203000F894DEBF0FBECDBF89877B876A8780E0BB
:1020400090E0A0E0B0E08D839E83AF83B8871982D3
:102050001A821B821C828091480490914904CC0111
:10206000A0E0B0E0BC01CD010E94EC22DC01CB017C
:10207000BC01CD0128E431EE42E850E40E945C212D
:10208000DC01CB018D839E83AF83B8876D817E8118
:102090008F8198850E948C1EDC01CB01CC01A0E0D1
:1020A000B0E089839A83AB83BC8310923E04109284
:1020B0003F04109240041092410410923A0410928E
:1020C0003B0410923C0410923D048985823719F438
:1020D0000E94901205C089858C3611F40E948612E8
:1020E00088EE93E00E94861120913E0430913F04D7
:1020F000409140045091410489819A81AB81BC8117
:10210000281739074A075B0778F320913A04309182
:102110003B0440913C0450913D0489819A81AB81FC
:10212000BC81281739074A075B07F0F20E94781133
:102130000E9472122B960FB6F894DEBF0FBECDBF71
:10214000CF91DF910895DF93CF93CDB7DEB72B9773
:102150000FB6F894DEBF0FBECDBF89877B876A8735
:1021600080E090E0A0E0B0E08D839E83AF83B887ED
:1021700019821A821B821C828A859B85CC01A0E071
:10218000B0E0BC01CD010E94EC22DC01CB01BC011E
:10219000CD0125EE30ED4AEA50E40E945C21DC01DD
:1021A000CB018D839E83AF83B8876D817E818F81C4
:1021B00098850E948C1EDC01CB01CC01A0E0B0E030
:1021C00089839A83AB83BC8310923E0410923F04B0
:1021D000109240041092410410923A0410923B0471
:1021E00010923C0410923D048985863619F40E94B1
:1021F000681205C08985823611F40E947C122091F4
:102200003E0430913F044091400450914104898143
:102210009A81AB81BC81281739074A075B0778F39D
:1022200020913A0430913B0440913C0450913D048C
:1022300089819A81AB81BC81281739074A075B07DE
:10224000F0F20E9472122B960FB6F894DEBF0FBE0A
:10225000CDBFCF91DF910895DF93CF93CDB7DEB798
:102260000E9463110E9435120E9495000E94A905E8
:102270000E94AE120E94400A0E944D0A0E94160B54
:102280000E948D0F0E94A20F0E94C216CF91DF9173
:102290000895DF93CF9300D0CDB7DEB789836A83EB
:1022A0004B838B810E94780A282F30E089816A81D4
:1022B000A90123E030E00E945C090F900F900F907D
:1022C000CF91DF910895DF93CF93CDB7DEB7A7E22B
:1022D000B0E0E7E2F0E0808188608C93A8E2B0E0B3
:1022E000E8E2F0E08081877F8C93CF91DF910895C1
:1022F000DF93CF93CDB7DEB7A8E2B0E0E8E2F0E03D
:102300008081877F8C93CF91DF910895DF93CF9366
:10231000CDB7DEB761970FB6F894DEBF0FBECDBF65
:10232000988B8F87A8E2B0E0E8E2F0E080818860D7
:102330008C9372C080E090E0A0E8BFE38B879C871D
:10234000AD87BE876B857C858D859E8526E636E6C6
:1023500046E655E40E946220DC01CB018F8398871A
:10236000A987BA876F81788589859A8520E030E0D2
:1023700040E85FE30E94682288232CF481E090E02B
:102380009E838D833FC06F81788589859A8520E003
:102390003FEF4FE757E40E94082218164CF56B8573
:1023A0007C858D859E8520E030E040E251E40E94EE
:1023B0006220DC01CB01BC01CD010E948C1EDC013E
:1023C000CB019E838D830FC080E791E09C838B833C
:1023D0008B819C810197F1F79C838B838D819E81FA
:1023E00001979E838D838D819E81009769F714C02C
:1023F0006F81788589859A850E948C1EDC01CB01CE
:102400009E838D838D819E819A83898389819A8120
:102410000197F1F79A838983198A8F8598890097A4
:1024200011F081E0898B8F8598890197988B8F8730
:102430008989882309F07ECF0E94781161960FB6B2
:10244000F894DEBF0FBECDBFCF91DF910895DF932B
:10245000CF93CDB7DEB7A8E2B0E0E8E2F0E080814C
:1024600088608C93CF91DF910895DF93CF93CDB7A0
:10247000DEB7A1E2B0E0E1E2F0E080818F608C9312
:10248000AAE0B1E0EAE0F1E0808188618C93ABE002
:10249000B1E0EBE0F1E0808188618C93E2E2F0E072
:1024A0001082CF91DF910895DF93CF930F92CDB734
:1024B000DEB78983A2E2B0E0E0E2F0E08081982F0D
:1024C000907F8981892B8C930F90CF91DF91089514
:1024D000DF93CF93CDB7DEB786E00E945412CF9141
:1024E000DF910895DF93CF93CDB7DEB780E00E94F0
:1024F0005412CF91DF910895DF93CF93CDB7DEB71C
:1025000089E00E945412CF91DF910895DF93CF9319
:10251000CDB7DEB785E00E945412CF91DF910895C8
:10252000DF93CF93CDB7DEB78AE00E945412CF91EC
:10253000DF910895DF93CF93CDB7DEB784E00E949B
:102540005412CF91DF910895DF93CF93CDB7DEB7CB
:1025500082E00E945412CF91DF910895DF93CF93D0
:10256000CDB7DEB7E0E2F1E089EA8083E1E2F1E0B5
:102570008BE08083E5E2F1E01082E4E2F1E010829A
:10258000E8E2F1E08FEF8083EAE2F1E08FEF808311
:10259000CF91DF910895DF93CF93CDB7DEB783E07E
:1025A0000E94780ACF91DF910895DF93CF93CDB742
:1025B000DEB782E00E94780ACF91DF910895DF9321
:1025C000CF93CDB7DEB783E00E94780ACF91DF9139
:1025D0000895DF93CF93CDB7DEB72E970FB6F8945B
:1025E000DEBF0FBECDBF0E94901286E966E90E9451
:1025F000630A80E090E0AAEFB3E48B879C87AD8705
:10260000BE876B857C858D859E8526E636E646E60B
:1026100055E40E946220DC01CB018F839887A98753
:10262000BA876F81788589859A8520E030E040E817
:102630005FE30E94682288232CF481E090E09E836F
:102640008D833FC06F81788589859A8520E03FEF33
:102650004FE757E40E94082218164CF56B857C85DD
:102660008D859E8520E030E040E251E40E946220AA
:10267000DC01CB01BC01CD010E948C1EDC01CB0131
:102680009E838D830FC080E791E09C838B838B8139
:102690009C810197F1F79C838B838D819E810197AB
:1026A0009E838D838D819E81009769F714C06F8111
:1026B000788589859A850E948C1EDC01CB019E83DA
:1026C0008D838D819E819A83898389819A810197E7
:1026D000F1F79A8389830E94D512883248F40E94C8
:1026E000D5128832E0F30E94D5128932E0F708C093
:1026F0000E94D512893220F00E94D5128932E0F76B
:102700000E94D512883220F40E94CB128832C0F386
:102710000E94D512883220F40E94CB128932C0F771
:102720000E94721281E080934204109243042E961C
:102730000FB6F894DEBF0FBECDBFCF91DF910895E5
:10274000DF93CF93CDB7DEB72E970FB6F894DEBFE9
:102750000FBECDBF0E94861286E966E90E94630A19
:1027600080E090E0AAEFB3E48B879C87AD87BE87BB
:102770006B857C858D859E8526E636E646E655E4A6
:102780000E946220DC01CB018F839887A987BA87DA
:102790006F81788589859A8520E030E040E85FE3A5
:1027A0000E94682288232CF481E090E09E838D8330
:1027B0003FC06F81788589859A8520E03FEF4FE79C
:1027C00057E40E94082218164CF56B857C858D8590
:1027D0009E8520E030E040E251E40E946220DC016E
:1027E000CB01BC01CD010E948C1EDC01CB019E837C
:1027F0008D830FC080E791E09C838B838B819C81CC
:102800000197F1F79C838B838D819E8101979E8335
:102810008D838D819E81009769F714C06F817885C3
:1028200089859A850E948C1EDC01CB019E838D8355
:102830008D819E819A83898389819A810197F1F79D
:102840009A8389830E94D512883248F40E94D51257
:102850008832E0F30E94D5128932E0F708C00E9466
:10286000D512893220F00E94D5128932E0F70E94F9
:10287000D512883220F40E94CB128832C0F30E9415
:10288000D512883220F40E94CB128932C0F70E9400
:10289000721281E080934304109242042E960FB688
:1028A000F894DEBF0FBECDBFCF91DF910895DF93C7
:1028B000CF93CDB7DEB760970FB6F894DEBF0FBEEB
:1028C000CDBF0E94901280EF60EF0E94630A80E00B
:1028D00090E0A6E9B3E48B879C87AD87BE876B85C4
:1028E0007C858D859E8526E636E646E655E40E9483
:1028F0006220DC01CB018F839887A987BA876F811B
:10290000788589859A8520E030E040E85FE30E9481
:10291000682288232CF481E090E09E838D833FC061
:102920006F81788589859A8520E03FEF4FE757E4EE
:102930000E94082218164CF56B857C858D859E8536
:1029400020E030E040E251E40E946220DC01CB0153
:10295000BC01CD010E948C1EDC01CB019E838D83C6
:102960000FC080E791E09C838B838B819C810197D2
:10297000F1F79C838B838D819E8101979E838D834C
:102980008D819E81009769F714C06F817885898554
:102990009A850E948C1EDC01CB019E838D838D81E4
:1029A0009E819A83898389819A810197F1F79A831D
:1029B00089830E94D512883238F40E94901280EFE9
:1029C00060EF0E94630A22C00E94D512188A8531E6
:1029D00010F081E0888B0E94CB121F86853110F0A9
:1029E00091E09F8788899F85892B882379F00E94B1
:1029F000721284E690E00E94861160960FB6F894F9
:102A0000DEBF0FBECDBFCF91DF91089581E08093EF
:102A1000420410924304CDCFDF93CF93CDB7DEB7FE
:102A20002E970FB6F894DEBF0FBECDBF0E94861260
:102A300080EF60EF0E94630A80E090E0A6E9B3E4D3
:102A40008B879C87AD87BE876B857C858D859E85B2
:102A500026E636E646E655E40E946220DC01CB011C
:102A60008F839887A987BA876F81788589859A85AA
:102A700020E030E040E85FE30E94682288232CF4E5
:102A800081E090E09E838D833FC06F81788589854A
:102A90009A8520E03FEF4FE757E40E94082218167E
:102AA0004CF56B857C858D859E8520E030E040E28D
:102AB00051E40E946220DC01CB01BC01CD010E94E7
:102AC0008C1EDC01CB019E838D830FC080E791E0DB
:102AD0009C838B838B819C810197F1F79C838B83F3
:102AE0008D819E8101979E838D838D819E8100972C
:102AF00069F714C06F81788589859A850E948C1E3C
:102B0000DC01CB019E838D838D819E819A83898395
:102B100089819A810197F1F79A8389830E94D5125E
:102B2000883238F40E94861280EF60EF0E94630AB8
:102B30000FC00E94D512893258F00E9472122E9650
:102B40000FB6F894DEBF0FBECDBFCF91DF910895D1
:102B500081E08093430410924204E0CFDF93CF934F
:102B6000CDB7DEB7E1ECF0E01082E0ECF0E01082EF
:102B7000E2ECF0E086E08083E4ECF0E08FE5808337
:102B8000E5ECF0E01082E1ECF0E088E98083CF91A1
:102B9000DF910895DF93CF930F92CDB7DEB789838E
:102BA000E0ECF0E08081882F90E0807290700097D8
:102BB000B9F3E6ECF0E0898180830F90CF91DF914B
:102BC00008951F920F920FB60F9200905B000F9224
:102BD00011242F933F934F935F936F937F938F9322
:102BE0009F93AF93BF93EF93FF93DF93CF93CDB7B3
:102BF000DEB7E6ECF0E0808180935504E6ECF0E08F
:102C000080915504808380915504883351F48091DC
:102C1000000290910102009721F4E2E2F0E086E0E8
:102C2000808380915504823351F480910002909109
:102C30000102009721F4E2E2F0E089E080838091D4
:102C40005504843351F48091000290910102009761
:102C500021F4E2E2F0E085E0808380915504863340
:102C600051F48091000290910102009721F4E2E278
:102C7000F0E08AE0808380915504853349F48091A7
:102C8000000290910102009719F4E2E2F0E0108254
:102C900080915504873351F4809100029091010294
:102CA000009721F488E893E10E94861180915504F1
:102CB000893341F48091000290910102009711F450
:102CC0000E94781180915504813461F48091000252
:102CD00090910102009731F481E090E0909301021D
:102CE0008093000280915504843461F48091000245
:102CF00090910102009731F40E9427120E94A60DC4
:102D00000E94781180915504833551F4809100021E
:102D100090910102009721F486E966E90E94630A16
:102D200080915504863451F4809100029091010203
:102D3000009721F488EC68EC0E94630A80915504A6
:102D4000873451F48091000290910102009721F4A0
:102D50008FEF6FEF0E94630ACF91DF91FF91EF91A8
:102D6000BF91AF919F918F917F916F915F914F91A3
:102D70003F912F910F9000925B000F900FBE0F902C
:102D80001F901895DF93CF93CDB7DEB7F8940E94CC
:102D9000AE157894CF91DF910895DF93CF9300D053
:102DA0000F92CDB7DEB78091040290910502909307
:102DB0005B0480935A0480E793E090934B048093E4
:102DC0004A040E942C1180910202909103028A30E1
:102DD000910529F482E090E09A8389830BC0809169
:102DE0000202909103028B30910521F484E090E07F
:102DF0009A83898389819A818230910599F50E940D
:102E0000791790934F0480934E0480914E049091D3
:102E10004F04909347048093460480915A04909104
:102E20005B042091460430914704B9010E945E1A68
:102E30000E94791790934F0480934E0480914E0422
:102E400090914F04909347048093460480915A04D4
:102E500090915B042091460430914704B9010E948F
:102E60005E1A2BC089819A818430910531F51C82CC
:102E70001B821EC00E94791790934F0480934E04CA
:102E800080914E0490914F049093470480934604A0
:102E900080915A0490915B0420914604309147043C
:102EA000B9010E945E1A8B819C8101969C838B8361
:102EB0008B819C8184309105ECF280916E0390911E
:102EC0006F03880F991FFC01E059FC4F87E090E0E9
:102ED0009183808380914A0490914B040E94D4177F
:102EE00080E090E00F900F900F900F90CF91DF91C6
:102EF0000895DF93CF9300D00F92CDB7DEB78091C6
:102F0000380490913904009759F481E090E090934F
:102F100039048093380484E090E09A83898337C031
:102F200080913804909139048130910559F482E000
:102F300090E0909339048093380483E090E09A8382
:102F4000898325C08091380490913904823091059D
:102F500059F483E090E0909339048093380486E03C
:102F600090E09A83898313C080913804909139044A
:102F70008330910559F484E090E090933904809374
:102F8000380481E090E09A83898301C004C089817C
:102F90009A819C838B838B819C810F900F900F90E3
:102FA0000F90CF91DF910895DF93CF93CDB7DEB728
:102FB00068970FB6F894DEBF0FBECDBF9A8B898B92
:102FC00081E00E943F0686E092E00E94FD080E9498
:102FD000D81D188A1F8658C28F85988901969C0132
:102FE000220F331F89899A89FC01E20FF31F808128
:102FF00091818530910581F50E94721281E00E94D5
:103000003F068FE092E00E94FD0882E660E570E0F6
:103010000E94A3100E94BF0B86E660E570E00E944C
:10302000A3108F85988901969C01220F331F8989EF
:103030009A89DC01A20FB31F8F8598899C01220F0A
:10304000331F89899A89FC01E20FF31F80819181E6
:1030500011969C938E9313C28F85988901969C013B
:10306000220F331F89899A89FC01E20FF31F8081A7
:10307000918186309105A9F50E94721281E00E942B
:103080003F068EE192E00E94FD0889E40E94CA1585
:1030900010920102109200020E94271280910002F9
:1030A000909101020097D1F30E9478118F85988941
:1030B00001969C01220F331F89899A89DC01A20F96
:1030C000B31F8F8598899C01220F331F89899A89A4
:1030D000FC01E20FF31F8081918111969C938E93E6
:1030E000CEC18F8598899C01220F331F89899A89C7
:1030F000FC01E20FF31F408151818F859889019671
:103100009C01220F331F89899A89FC01E20FF31F6A
:10311000808191814817590709F083C081E00E949E
:103120003F0685E392E00E94FD0880E090E0AAE778
:10313000B4E48B879C87AD87BE876B857C858D8546
:103140009E8526E636E646E655E40E946220DC01CE
:10315000CB018F839887A987BA876F817885898506
:103160009A8520E030E040E85FE30E9468228823EF
:103170002CF481E090E09E838D833FC06F81788541
:1031800089859A8520E03FEF4FE757E40E940822A7
:1031900018164CF56B857C858D859E8520E030E08A
:1031A00040E251E40E946220DC01CB01BC01CD0170
:1031B0000E948C1EDC01CB019E838D830FC080E7B3
:1031C00091E09C838B838B819C810197F1F79C8399
:1031D0008B838D819E8101979E838D838D819E81BE
:1031E000009769F714C06F81788589859A850E9458
:1031F0008C1EDC01CB019E838D838D819E819A8301
:10320000898389819A810197F1F79A83898381E083
:103210000E943F0686E092E00E94FD080E94D81DB1
:103220002EC18F8598899C01220F331F89899A8925
:10323000FC01E20FF31F408151818F85988901962F
:103240009C01220F331F89899A89FC01E20FF31F29
:10325000808191819A01281B390BC901988F8F8B2E
:103260008F89988D99233CF42F89388D309521953D
:103270003F4F388F2F8B8F89988D8130910509F0C2
:1032800042C08F8598899C01220F331F89899A89B2
:10329000FC01E20FF31F408151818F8598890196CF
:1032A0009C01220F331F89899A89FC01E20FF31FC9
:1032B00080819181481759079CF481E00E943F0664
:1032C0008CE492E00E94FD080E94A01381E00E941D
:1032D0003F0686E092E00E94FD080E94D81DCFC004
:1032E00081E00E943F0688E592E00E94FD080E946E
:1032F000E91281E00E943F0686E092E00E94FD080C
:103300000E94D81DBCC08F8598899C01220F331F55
:1033100089899A89FC01E20FF31F408151818F85D1
:10332000988901969C01220F331F89899A89FC0193
:10333000E20FF31F808191819A01281B390BC9018B
:103340009E8B8D8B8D899E8999233CF42D893E8996
:10335000309521953F4F3E8B2D8B8D899E898230F4
:103360009105E1F481E00E943F068CE492E00E9426
:10337000FD080E94A01381E00E943F068CE492E0C9
:103380000E94FD080E94A01381E00E943F0686E093
:1033900092E00E94FD080E94D81D71C08F85988917
:1033A0009C01220F331F89899A89FC01E20FF31FC8
:1033B000408151818F85988901969C01220F331F8E
:1033C00089899A89FC01E20FF31F808191819A011A
:1033D000281B390BC9019C8B8B8B8B899C8999236A
:1033E0003CF42B893C89309521953F4F3C8B2B8BAE
:1033F0008B899C898330910509F041C08F8598891C
:103400009C01220F331F89899A89FC01E20FF31F67
:10341000408151818F85988901969C01220F331F2D
:1034200089899A89FC01E20FF31F808191818417B9
:1034300095079CF481E00E943F068CE492E00E9494
:10344000FD080E94A01381E00E943F0686E092E002
:103450000E94FD080E94D81D12C081E00E943F0614
:1034600088E592E00E94FD080E94E91281E00E9436
:103470003F0686E092E00E94FD080E94D81D8F85DD
:1034800098890196988B8F878F85988901969C01E2
:10349000220F331F89899A89FC01E20FF31F808173
:1034A00091818730910509F097CD68960FB6F89411
:1034B000DEBF0FBECDBFCF91DF910895DF93CF93D5
:1034C000CDB7DEB780915A0490915B0420914604F9
:1034D00030914704B9010E94B61A8091040290917C
:1034E000050290935B0480935A04809102029091AC
:1034F0000302909347048093460480915A0490916C
:103500005B042091460430914704B9010E94B61A29
:10351000809102029091030290935B0480935A047D
:103520008091040290910502909347048093460491
:1035300080915A0490915B04209146043091470495
:10354000B9010E94B61A80910402909105029093ED
:103550005B0480935A0480914E0490914F049093A1
:10356000470480934604CF91DF910895DF93CF9372
:1035700000D00F92CDB7DEB79A8389837C836B83AB
:10358000209104023091050289819A818217930764
:1035900009F09EC220914E0430914F048B819C8192
:1035A0008217930709F004C280914E0490914F0452
:1035B0008430910509F065C020916E0330916F034E
:1035C000C901880F991FFC01E059FC4F84E090E08D
:1035D00091838083C901019690936F0380936E035A
:1035E00020916E0330916F03C901880F991FFC0170
:1035F000E059FC4F83E090E091838083C9010196FC
:1036000090936F0380936E0320916E0330916F034C
:10361000C901880F991FFC01E059FC4F85E090E03B
:1036200091838083C901019690936F0380936E0309
:1036300020916E0330916F03C901880F991FFC011F
:10364000E059FC4F81E090E091838083C9010196AD
:1036500090936F0380936E0320916E0330916F03FC
:10366000C901880F991FFC01E059FC4F82E090E0EE
:1036700091838083C901019690936F0380936E03B9
:1036800027C280914E0490914F048630910509F035
:1036900065C020916E0330916F03C901880F991F97
:1036A000FC01E059FC4F84E090E091838083C901E4
:1036B000019690936F0380936E0320916E03309177
:1036C0006F03C901880F991FFC01E059FC4F81E08D
:1036D00090E091838083C901019690936F0380935A
:1036E0006E0320916E0330916F03C901880F991FFB
:1036F000FC01E059FC4F85E090E091838083C90193
:10370000019690936F0380936E0320916E03309126
:103710006F03C901880F991FFC01E059FC4F83E03A
:1037200090E091838083C901019690936F03809309
:103730006E0320916E0330916F03C901880F991FAA
:10374000FC01E059FC4F82E090E091838083C90145
:10375000019690936F0380936E03BAC180914E04DB
:1037600090914F048130910509F08DC020916E0336
:1037700030916F03C901880F991FFC01E059FC4F7C
:1037800084E090E091838083C901019690936F0358
:1037900080936E0320916E0330916F03C901880FEF
:1037A000991FFC01E059FC4F84E090E091838083F5
:1037B000C901019690936F0380936E0320916E036D
:1037C00030916F03C901880F991FFC01E059FC4F2C
:1037D00083E090E091838083C901019690936F0309
:1037E00080936E0320916E0330916F03C901880F9F
:1037F000991FFC01E059FC4F85E090E091838083A4
:10380000C901019690936F0380936E0320916E031C
:1038100030916F03C901880F991FFC01E059FC4FDB
:1038200081E090E091838083C901019690936F03BA
:1038300080936E0320916E0330916F03C901880F4E
:10384000991FFC01E059FC4F82E090E09183808356
:10385000C901019690936F0380936E0320916E03CC
:1038600030916F03C901880F991FFC01E059FC4F8B
:1038700082E090E091838083C901019690936F0369
:1038800080936E0325C180914E0490914F04833044
:10389000910509F01DC120916E0330916F03C9019C
:1038A000880F991FFC01E059FC4F84E090E0918360
:1038B0008083C901019690936F0380936E032091DA
:1038C0006E0330916F03C901880F991FFC01E05905
:1038D000FC4F84E090E091838083C901019690932E
:1038E0006F0380936E0320916E0330916F03C901C3
:1038F000880F991FFC01E059FC4F81E090E0918313
:103900008083C901019690936F0380936E03209189
:103910006E0330916F03C901880F991FFC01E059B4
:10392000FC4F85E090E091838083C90101969093DC
:103930006F0380936E0320916E0330916F03C90172
:10394000880F991FFC01E059FC4F83E090E09183C0
:103950008083C901019690936F0380936E03209139
:103960006E0330916F03C901880F991FFC01E05964
:10397000FC4F82E090E091838083C901019690938F
:103980006F0380936E0320916E0330916F03C90122
:10399000880F991FFC01E059FC4F82E090E0918371
:1039A0008083C901019690936F0380936E0390C04A
:1039B00020910202309103028B819C818217930730
:1039C00009F086C080910202909103028A3091052D
:1039D000E1F520916E0330916F03C901880F991FA3
:1039E000FC01E059FC4F83E090E091838083C901A2
:1039F000019690936F0380936E0320916E03309134
:103A00006F03C901880F991FFC01E059FC4F82E048
:103A100090E091838083C901019690936F03809316
:103A20006E0320916E0330916F03C901880F991FB7
:103A3000FC01E059FC4F86E090E091838083C9014E
:103A4000019690936F0380936E0380910202909190
:103A500003028B309105E1F520916E0330916F03E5
:103A6000C901880F991FFC01E059FC4F81E090E0EB
:103A700091838083C901019690936F0380936E03B5
:103A800020916E0330916F03C901880F991FFC01CB
:103A9000E059FC4F82E090E091838083C901019658
:103AA00090936F0380936E0320916E0330916F03A8
:103AB000C901880F991FFC01E059FC4F86E090E096
:103AC00091838083C901019690936F0380936E0365
:103AD000209102023091030289819A818217930713
:103AE00009F05FC080910202909103028A30910533
:103AF00049F520916E0330916F03C901880F991F1A
:103B0000FC01E059FC4F84E090E091838083C9017F
:103B1000019690936F0380936E0320916E03309112
:103B20006F03C901880F991FFC01E059FC4F81E028
:103B300090E091838083C901019690936F038093F5
:103B40006E032FC080910202909103028B30910589
:103B500041F520916E0330916F03C901880F991FC1
:103B6000FC01E059FC4F84E090E091838083C9011F
:103B7000019690936F0380936E0320916E033091B2
:103B80006F03C901880F991FFC01E059FC4F83E0C6
:103B900090E091838083C901019690936F03809395
:103BA0006E030F900F900F900F90CF91DF910895BB
:103BB000DF93CF9300D00F92CDB7DEB788E2898331
:103BC0000E94681283E00E94780A8C8382E00E943F
:103BD000780A8B8381E00E94780A8A8382E061E020
:103BE00043E00E94491182E065E042E00E944911F1
:103BF00082E069E041E00E9449119C818981981727
:103C000070F49B818981981750F49A818981981763
:103C100030F486E966E90E94630A0E9468129C817A
:103C20008981981770F49B818981981750F49A8143
:103C30008981891730F40E94901286E966E90E9412
:103C4000630A9C818981981770F49B818981891707
:103C500050F49A818981981730F486E966E90E94C8
:103C6000630A0E9468129C818981981770F49B8175
:103C70008981891750F49A818981891730F40E94CB
:103C8000901286E966E90E94630A9C8189818917FE
:103C900070F49B818981981750F49A8189819817D3
:103CA00030F40E94861286E966E90E94630A9C81CC
:103CB0008981891770F49B818981891750F49A81D1
:103CC0008981981730F40E94861286E966E90E947D
:103CD000630A9C818981891708F074CF9B8189814F
:103CE000891708F06FCF9A818981891708F06ACF08
:103CF0000E94721286E662E370E00E94A31084EFD5
:103D000091E00E9486110E9472120F900F900F9006
:103D10000F90CF91DF910895EF92FF920F931F9331
:103D20007B018C0120E030E040E05FE40E9438221B
:103D300088238CF0C801B70120E030E040E05FE468
:103D40000E9404200E9498229B01AC012050304028
:103D50004040504806C0C801B7010E9498229B010C
:103D6000AC01B901CA011F910F91FF90EF90089526
:103D7000A0E0B0E0EEEBFEE10C946E25DC012B013F
:103D8000FA019C91923008F439C1EB0188818230AC
:103D900008F433C1943069F4843009F02FC11196CE
:103DA0009C9111978981981709F428C1A5E6B2E082
:103DB00025C1843009F421C18230A9F4923009F080
:103DC0001DC19A01AD0188E0EA010990AE01E90147
:103DD00009929E018150C1F7E201898111969C915F
:103DE0008923818308C1923009F407C112962D906E
:103DF0003C901397EB018A819B811496AD90BD9006
:103E0000CD90DC901797EC80FD800E811F81910191
:103E1000281B390BB90137FF04C066277727621BBF
:103E2000730B603271050CF061C0121613066CF54D
:103E300037014801062E04C09694879477946794BE
:103E40000A94D2F721E030E040E050E004C0220FB5
:103E5000331F441F551F6A95D2F721503040404010
:103E600050402E213F21402351232115310541058A
:103E7000510521F021E030E040E050E079018A0175
:103E8000E628F728082919293CC0232BD1F1260E52
:103E9000371E35014601062E04C096948794779408
:103EA00067940A94D2F721E030E040E050E004C08B
:103EB000220F331F441F551F6A95D2F721503040FF
:103EC000404050402A213B214C215D2121153105E4
:103ED0004105510521F021E030E040E050E059017A
:103EE0006A01A628B728C828D9280BC082159305CF
:103EF0002CF01C01AA24BB24650103C0EE24FF247E
:103F0000870111969C91D20111968C91981709F412
:103F100045C0992339F0A80197012A193B094C099A
:103F20005D0906C0A60195012E193F09400B510BF2
:103F300057FD08C011823382228224833583468351
:103F400057831DC081E0818333822282882799278D
:103F5000DC01821B930BA40BB50B84839583A68392
:103F6000B7830DC0220F331F441F551F2483358391
:103F7000468357838281938101979383828324812F
:103F8000358146815781DA01C9010197A109B1093B
:103F90008F5F9F4FAF4FBF4328F30BC09183338296
:103FA0002282EA0CFB1C0C1D1D1DE482F582068397
:103FB000178383E08083248135814681578157FFB1
:103FC0001AC0C901AA2797FDA095BA2F81709070D9
:103FD000A070B0705695479537952795822B932BF7
:103FE000A42BB52B84839583A683B7838281938189
:103FF000019693838283DF0101C0D201CD01CDB749
:10400000DEB7E2E10C948A25A0E2B0E0EAE0F0E25B
:104010000C947A2569837A838B839C832D833E83DA
:104020004F835887E9E0EE2EF12CEC0EFD1ECE01F9
:104030000196B7010E9489248E010F5E1F4FCE01A9
:104040000596B8010E9489248A8991E089278A8B84
:10405000C701B801AE01475E5F4F0E94B81E0E94C3
:10406000B423A096E6E00C949625A0E2B0E0EBE342
:10407000F0E20C947A2569837A838B839C832D8369
:104080003E834F835887F9E0EF2EF12CEC0EFD1E96
:10409000CE010196B7010E9489248E010F5E1F4F49
:1040A000CE010596B8010E948924C701B801AE016E
:1040B000475E5F4F0E94B81E0E94B423A096E6E0C0
:1040C0000C949625A0E2B0E0E8E6F0E20C946E25B0
:1040D00069837A838B839C832D833E834F835887A8
:1040E000CE010196BE01675F7F4F0E948924CE01F9
:1040F0000596BE016F5E7F4F0E948924998592309C
:1041000088F089898230C8F0943019F4823051F4F3
:1041100004C0843029F4923081F485E692E0C6C070
:10412000923049F420E09A858A89981321E02A8701
:10413000CE010996BBC0823049F420E09A858A8975
:10414000981321E02A8BCE014196B0C02D843E8485
:104150004F8458886D887E888F88988CEE24FF2441
:104160008701AA24BB24650140E050E060E070E0D4
:10417000E0E0F0E0C10181709070892BE9F0E60C7D
:10418000F71C081D191D9A01AB012A0D3B1D4C1D82
:104190005D1D80E090E0A0E0B0E0E614F7040805C3
:1041A000190520F481E090E0A0E0B0E0BA01A90197
:1041B000480F591F6A1F7B1FAA0CBB1CCC1CDD1C9F
:1041C00097FE08C081E090E0A0E0B0E0A82AB92AFC
:1041D000CA2ADB2A3196E032F10549F0660C771CD9
:1041E000881C991C5694479437942794C3CFFA851A
:1041F000EA892B893C898B859C85280F391F2E5F86
:104200003F4F17C0CA0181709070892B61F01695DD
:104210000795F794E79480E090E0A0E0B0E8E82A02
:10422000F92A0A2B1B2B76956795579547952F5F93
:104230003F4F77FDE7CF0CC0440F551F661F771F18
:1042400017FD4160EE0CFF1C001F111F2150304074
:10425000403090E0590790E0690790E4790760F3F7
:104260002B8F3C8FDB01CA018F779070A070B070EC
:1042700080349105A105B10561F447FD0AC0E11440
:10428000F1040105110529F0405C5F4F6F4F7F4F2E
:1042900040781A8EFE1711F081E08A8F4D8F5E8F65
:1042A0006F8F78A383E0898FCE0149960E94B42353
:1042B000A096E2E10C948A25A8E1B0E0E2E6F1E202
:1042C0000C94762569837A838B839C832D833E832C
:1042D0004F835887B9E0EB2EF12CEC0EFD1ECE017A
:1042E0000196B7010E9489248E010F5E1F4FCE01F7
:1042F0000596B8010E9489242985223008F47EC0E1
:104300003989323010F4B8017CC08A859A898927AE
:104310008A87243011F0223031F4231709F06EC05F
:1043200065E672E06EC0343039F41D861E861F8645
:10433000188A1C861B8604C0323021F484E08987E9
:10434000B7015FC02B853C858B899C89281B390B65
:104350003C872B87ED84FE840F851889AD88BE8845
:10436000CF88D88CEA14FB040C051D0540F4EE0C34
:10437000FF1C001F111F215030403C872B8720E07D
:1043800030E040E050E080E090E0A0E0B0E460E0A9
:1043900070E0EA14FB040C051D0540F0282B392BB6
:1043A0004A2B5B2BEA18FB080C091D09B695A7954B
:1043B00097958795EE0CFF1C001F111F6F5F7F4FB5
:1043C0006F31710531F7DA01C9018F779070A070F4
:1043D000B07080349105A105B10561F427FD0AC0D4
:1043E000E114F1040105110529F0205C3F4F4F4F06
:1043F0005F4F20782D873E874F87588BBE01675FC0
:104400007F4FCB010E94B4236896EAE00C9492257A
:10441000A8E1B0E0EEE0F2E20C947A2569837A83B9
:104420008B839C832D833E834F83588789E0E82EBE
:10443000F12CEC0EFD1ECE010196B7010E948924DD
:104440008E010F5E1F4FCE010596B8010E94892490
:104450008985823040F08989823028F0C701B8010F
:104460000E94012501C08FEF6896E6E00C94962526
:10447000A8E1B0E0EEE3F2E20C947A2569837A8356
:104480008B839C832D833E834F83588789E0E82E5E
:10449000F12CEC0EFD1ECE010196B7010E9489247D
:1044A0008E010F5E1F4FCE010596B8010E94892430
:1044B0008985823040F08989823028F0C701B801AF
:1044C0000E94012501C08FEF6896E6E00C949625C6
:1044D000A8E1B0E0EEE6F2E20C947A2569837A83F3
:1044E0008B839C832D833E834F83588789E0E82EFE
:1044F000F12CEC0EFD1ECE010196B7010E9489241D
:104500008E010F5E1F4FCE010596B8010E948924CF
:104510008985823040F08989823028F0C701B8014E
:104520000E94012501C081E06896E6E00C94962582
:10453000ACE0B0E0EEE9F2E20C947E2569837A8388
:104540008B839C83CE010196BE016B5F7F4F0E94DF
:1045500089248D81823061F1823050F1843021F4E0
:104560008E81882351F12EC02F81388537FD20C0E0
:104570006E812F3131051CF06623F9F023C08EE1E6
:1045800090E0821B930B29853A854B855C8504C09E
:1045900056954795379527958A95D2F76623B1F0BA
:1045A00050954095309521953F4F4F4F5F4F0EC02E
:1045B00020E030E040E050E009C02FEF3FEF4FEF48
:1045C0005FE704C020E030E040E050E8B901CA01F4
:1045D0002C96E2E00C949A25A8E0B0E0E2EFF2E23B
:1045E0000C9476257B018C0161157105810591057F
:1045F00019F482E0898360C083E089838EE1C82E4C
:10460000D12CDC82CB82ED82FE820F831887C80119
:10461000B7010E946523FC013197F7FF3BC02227B9
:1046200033272E1B3F0B57016801022E04C0D6947E
:10463000C794B794A7940A94D2F740E050E060E0A2
:1046400070E081E090E0A0E0B0E004C0880F991F26
:10465000AA1FBB1F2A95D2F70197A109B1098E2184
:104660009F21A023B1230097A105B10521F041E0CE
:1046700050E060E070E04A295B296C297D294D8378
:104680005E836F8378878EE190E08E1B9F0B9C8307
:104690008B8312C0309781F00E2E04C0EE0CFF1CED
:1046A000001F111F0A94D2F7ED82FE820F83188734
:1046B000CE1ADF0ADC82CB821A82CE0101960E94DA
:1046C000B4232896EAE00C949225EF92FF920F9380
:1046D0001F937B018C0180E0E81680E0F80681E002
:1046E000080780E0180788F48FEFE816F104010549
:1046F000110531F028F088E090E0A0E0B0E017C0AC
:1047000080E090E0A0E0B0E012C080E0E81680E039
:10471000F80680E0080781E0180728F088E190E0BB
:10472000A0E0B0E004C080E190E0A0E0B0E020E2D2
:1047300030E040E050E0281B390B4A0B5B0B04C013
:1047400016950795F794E7948A95D2F7F701E35900
:10475000FD4F8081281B310941095109C9011F9171
:104760000F91FF90EF900895DF92EF92FF920F93D9
:104770001F93FC01E480F58006811781D180808140
:10478000823048F480E090E0A0E1B0E0E82AF92A25
:104790000A2B1B2BA5C0843009F49FC0823021F462
:1047A000EE24FF24870105C0E114F1040105110581
:1047B00019F4E0E0F0E096C0628173819FEF623807
:1047C00079070CF05BC022E83FEF261B370B2A313C
:1047D00031052CF020E030E040E050E02AC0B80184
:1047E000A701022E04C076956795579547950A94C0
:1047F000D2F781E090E0A0E0B0E004C0880F991FFC
:10480000AA1FBB1F2A95D2F70197A109B1098E21D2
:104810009F21A023B1230097A105B10521F081E0DC
:1048200090E0A0E0B0E09A01AB01282B392B4A2B95
:104830005B2BDA01C9018F779070A070B070803463
:104840009105A105B10539F427FF09C0205C3F4F50
:104850004F4F5F4F04C0215C3F4F4F4F5F4FE0E031
:10486000F0E02030A0E03A07A0E04A07A0E45A07B1
:1048700010F0E1E0F0E079018A0127C060387105AD
:1048800064F5FB01E158FF4FD801C7018F779070A5
:10489000A070B07080349105A105B10539F4E7FE30
:1048A0000DC080E490E0A0E0B0E004C08FE390E0B1
:1048B000A0E0B0E0E80EF91E0A1F1B1F17FF05C09D
:1048C00016950795F794E794319687E01695079526
:1048D000F794E7948A95D1F705C0EE24FF24870169
:1048E000EFEFF0E06E2F679566276795902F9F7723
:1048F000D794DD24D7948E2F8695492F462B582F99
:104900005D29B701CA011F910F91FF90EF90DF90D1
:104910000895FC01DB01408151812281622F6F7774
:1049200070E0221F2227221F9381892F880F822B5C
:10493000282F30E0991F9927991F11969C93119762
:1049400021153105A9F5411551056105710511F4D0
:1049500082E037C082E89FEF13969C938E93129764
:104960009A01AB0167E0220F331F441F551F6A9560
:10497000D1F783E08C930DC0220F331F441F551FC6
:1049800012968D919C911397019713969C938E93F9
:104990001297203080E0380780E0480780E458070D
:1049A00058F314962D933D934D935C931797089568
:1049B0002F3F310579F4411551056105710519F451
:1049C00084E08C93089564FF03C081E08C9312C04F
:1049D0001C9210C02F57304013963C932E93129781
:1049E00083E08C9387E0440F551F661F771F8A95DD
:1049F000D1F7706414964D935D936D937C931797E4
:104A000008951F93DC01FB019C91923008F447C08C
:104A10008081823008F443C0943051F411961C9187
:104A2000843099F58181682F70E0611B71093FC066
:104A3000843021F0923031F48230B9F181818823C1
:104A400089F12DC011961C9111978230F1F081816E
:104A50001817D9F412962D913C9113978281938166
:104A60008217930794F028173907BCF014968D919C
:104A70009D910D90BC91A02D248135814681578157
:104A8000281739074A075B0718F4112341F00AC0B9
:104A900082179307A407B50740F4112319F061E0CA
:104AA00070E005C06FEF7FEF02C060E070E0CB0107
:104AB0001F910895AA1BBB1B51E107C0AA1FBB1F72
:104AC000A617B70710F0A61BB70B881F991F5A959A
:104AD000A9F780959095BC01CD0108952F923F9242
:104AE0004F925F926F927F928F929F92AF92BF92FE
:104AF000CF92DF92EF92FF920F931F93CF93DF93AA
:104B0000CDB7DEB7CA1BDB0B0FB6F894DEBF0FBE06
:104B1000CDBF19942A88398848885F846E847D8443
:104B20008C849B84AA84B984C884DF80EE80FD8055
:104B30000C811B81AA81B981CE0FD11D0FB6F894CB
:0E4B4000DEBF0FBECDBFED010895F894FFCF8C
:104B4E0001000A0008006D6F7665206677640070BC
:104B5E0069636B696E67206E756D62657200686160
:104B6E006E646C696E6720636F6E74726F6C207406
:104B7E006F207063006E6F206368616E67652069D9
:104B8E006E20646972656374696F6E00726F746112
:104B9E007465206C65667400726F74617465207242
:104BAE006967687400000000000000000000010248
:104BBE0002030303030404040404040404050505AA
:104BCE000505050505050505050505050506060684
:104BDE000606060606060606060606060606060667
:104BEE000606060606060606060606060607070754
:104BFE000707070707070707070707070707070737
:104C0E000707070707070707070707070707070726
:104C1E000707070707070707070707070707070716
:104C2E000707070707070707070707070708080803
:104C3E0008080808080808080808080808080808E6
:104C4E0008080808080808080808080808080808D6
:104C5E0008080808080808080808080808080808C6
:104C6E0008080808080808080808080808080808B6
:104C7E0008080808080808080808080808080808A6
:104C8E000808080808080808080808080808080896
:104C9E000808080808080808080808080808080886
:0E4CAE00080808080808080808080808080090
:00000001FF
